:1000000003308A007B2B00000C00C437A0306D1039
:100010002010201020102532200025004E34E93217
:100020007410E437201020102532EF210001C4376E
:10003000A0306D1020103A1020102532200025002D
:100040004E34E9327410E4373A1020102532EF2193
:100050000001663084008313000803193C28023035
:10006000F800F701F70B3228F80B31289730F7002A
:10007000F70B3828800B2F28080049184128061252
:1000800042280616C9184628861247288616491996
:100090004B2806134C280617C919502886135128D7
:1000A0008617000086155428552886110800CA01B5
:1000B0000030061A0130CA040030861A0130F700F9
:1000C0000310F70D7708CA040030061B0130F70053
:1000D000F70DF70DFC30F7057708CA040030861BD2
:1000E0000130F700F70DF70DF70DF830F705770839
:1000F000CA044A08F8000800831686118610061103
:100100008312861083160616861606178617831224
:10011000061500008615000057207808C9008611D2
:1001200000008615932857207808C800861183168A
:1001300006128612061386138312490EF700F0305A
:10014000F70577084804F8007808C800C81B82281B
:10015000C608031DAD288610AE28861400000611BF
:1001600000008611470EC8000F30C8054808C900B6
:100170003D2047080F39C800C9003D20080028303D
:10018000BC000C30BD000130BE000630BF0086113F
:100190008610061183160612861206138613861120
:1001A000861006110F308312E60029200130BB00B3
:1001B0003B08033C031CE4280330C9003D20053004
:1001C000E6002920BB0AD8280230C9003D200530AE
:1001D000E6002920BB013B08033C031CFB283C3004
:1001E0003B07840083130008C000C6014008C70015
:1001F0007C20BB0AEB288A110A12982B430B012999
:1002000004294030C4000529C40101304202C4075A
:1002100044088038C500C6014508C7007C20080096
:100220004108073A03191E290B3A03192329063AF4
:1002300003192B29023A0319312936290130C2004A
:10024000C300FE203B29C6010130C7007C200230DC
:10025000E60029203B290130C2000230C300FE2005
:100260003B29C6011030C7007C203B290130C60065
:100270004108C7007C2008000B08BB008B138316C5
:1002800003178C170C140000000083120313BB1B10
:100290008B1703170C087F39031990290313BB0030
:1002A00003170D080313BC0003170F080313BD0049
:1002B0003B08C10010213C0803178D0003133D08C3
:1002C00003178F0003130B08BE008B13831603174D
:1002D0008C170C140000000083120313BE1B8B1735
:1002E00003170C0D0E0D7F39031990290313BB0062
:1002F00003170D080313BC0003170F080313BD00F9
:100300003B08C10010213C0803178D0003133D0872
:1003100003178F008D0A03198F0A03133C29031753
:10032000031308003B103B18382A831688138312E6
:1003300088131230E60029208817831688171A3090
:10034000F700F70BA12900008312881BB72934306E
:10035000F700F70BA929AC290000881FB529343014
:10036000F700F70BB129B42900008810B8298814C8
:10037000E4016408273C031CD729881FBD292030CD
:10038000F700F70BC129C4290000881FD0293C3091
:1003900064078400831301308000881BCD29D52990
:1003A0003C306407840083138001E40AB929E40126
:1003B0006408073C031CE8290310200DE6003C30CC
:1003C00064078400831300086604A000E40AD829A7
:1003D0000830E40064080F3C031CFA290310210DC7
:1003E000E6003C3064078400831300086604A10023
:1003F000E40AEA291030E4006408173C031C0C2AC4
:100400000310220DE6003C306407840083130008CB
:100410006604A200E40AFC291830E40064081F3CCA
:10042000031C1E2A0310230DE6003C3064078400E1
:10043000831300086604A300E40A0E2A2030E400B7
:100440006408273C031C302A0310650DE6003C308D
:1004500064078400831300086604E500E40A202A88
:100460002308220720072107650203193B1493295B
:100470008A110A12A92B0B08BC008B1383160317D1
:100480008C170C140000000083120313BC1B8B1785
:100490000318722A03170C087F390313BC000317D3
:1004A0000D080313BD0003170F080313BE003C081B
:1004B000C10010213D0803178D0003133E080317E8
:1004C0008F0003130B08BF008B13831603178C17C1
:1004D0000C140000000083120313BF1B8B17BB0B0F
:1004E000722A912A03170C0D0E0D7F390313BC00DD
:1004F00003170D080313BD0003170F080313BE00F5
:100500003C08C10010213D0803178D0003133E086D
:1005100003178F008D0A03198F0A03100313BB0BF7
:100520003B2A08004208F801410203189A2A4108B0
:10053000F700A62AF7010830C300C10DF70D4208E5
:1005400077020318F700F80DC30B9D2A080020302E
:100550003C1E3030BD003B08F700BB1FB72AF7092F
:10056000F70A7708BB002D30BD00BC173C143B08D0
:10057000C1006430C20092227708BB003030780797
:10058000BE003B08C1000A30C2009222303077071B
:10059000C00030307807BF003D08F70030303E0221
:1005A0000319D62ABC14BC1B3C15EA2A3D08BE0020
:1005B0002030BD0030303F020319E22A3C14BC1B3E
:1005C000BC14EA2A031D3C14031DEA2A3E08BF009E
:1005D0002030BE003C19F12ABC18F42A3C18F72A36
:1005E000FA2A3D08C10010213E08C10010213F0831
:1005F000C10010214008C100102108003808840003
:1006000083133918831741088000840A8001B80ACF
:100610000319B90A080020303C1E3030BD003B08E9
:10062000F700BB1F1B2BF709F70A7708BB002D301B
:10063000BD00BC173C143B08C1006430C2009222CC
:100640007708BB0030307807BE003B08C1000A3095
:10065000C200922230307707C00030307807BF00E8
:100660003D08F70030303E0203193A2BBC14BC1B86
:100670003C154E2B3D08BE002030BD0030303F02FF
:100680000319462B3C14BC1BBC144E2B031D3C14FD
:10069000031D4E2B3E08BF002030BE003C19552BD9
:1006A000BC18582B3C185B2B5E2B3D08C100FE226A
:1006B0003E08C100FE223F08C100FE224008C100E2
:1006C000FE22080080080319782BBC010408BB0037
:1006D0003C10831B3C1400080C1E6C2B99003B083B
:1006E000840083133C188317840A0319850A622B3C
:1006F0008A110A12372C03081F3983000C30831625
:100700009900A2309800903083129800B901B80186
:1007100083161F149F141F159F1107309C0083130D
:100720008117003086008800831288100810BF28C7
:10073000043003178D0000308F0003133C213A1062
:1007400064000230BB00FA30E6002920BB0BA32B6B
:1007500092293A18E22B0130C200C300FE20053076
:1007600003178D0000308F0003100C300313BB0003
:100770003B222008BB001830BC00A7222030C1005B
:1007800010210D3003178D0000308F0003133C2122
:100790000130C2000230C300FE200E3003178D006E
:1007A00000308F0003100C300313BB003B222208E3
:1007B000BB001830BC00A7226F30C10010214330AD
:1007C000C10010213A1C1B2C0130C200C300FE20C6
:1007D000173003178D0000308F0003100C30031307
:1007E000BB003B222008BB001830BC00A7222030F1
:1007F000C10010211F3003178D0000308F0003133C
:100800003C210130C2000230C300FE20203003171B
:100810008D0000308F0003100C300313BB003B220F
:100820002208BB001830BC00A7226F30C100102185
:100830004330C10010213A181F2C3A14202C3A10D2
:10084000B9012430B8002208BB001830BC000B23CB
:100850007C30C100FE222008BB001830BC000B23F6
:100860007C30C100FE22243084008313622B0D30C3
:100870000C1E382C99000A300C1E3C2C9900A02B21
:02088000630013
:02400E00363F3B
:00000001FF
;PIC16F877A
;CRC=EA69  CREATED="12-Thg3-22 15:02"
